{
  "contractName": "KeyContract",
  "abi": [
    {
      "inputs": [],
      "payable": false,
      "stateMutability": "nonpayable",
      "type": "constructor"
    },
    {
      "constant": false,
      "inputs": [],
      "name": "open",
      "outputs": [],
      "payable": false,
      "stateMutability": "nonpayable",
      "type": "function"
    },
    {
      "constant": false,
      "inputs": [],
      "name": "close",
      "outputs": [],
      "payable": false,
      "stateMutability": "nonpayable",
      "type": "function"
    },
    {
      "constant": false,
      "inputs": [
        {
          "name": "_granted",
          "type": "address"
        }
      ],
      "name": "grantRight",
      "outputs": [],
      "payable": false,
      "stateMutability": "nonpayable",
      "type": "function"
    }
  ],
  "bytecode": "0x60806040526001600260006101000a81548160ff02191690831515021790555034801561002b57600080fd5b50336000806101000a81548173ffffffffffffffffffffffffffffffffffffffff021916908373ffffffffffffffffffffffffffffffffffffffff1602179055506103608061007b6000396000f300608060405260043610610057576000357c0100000000000000000000000000000000000000000000000000000000900463ffffffff16806343d726d61461005c57806374b791f314610073578063fcfff16f146100b6575b600080fd5b34801561006857600080fd5b506100716100cd565b005b34801561007f57600080fd5b506100b4600480360381019080803573ffffffffffffffffffffffffffffffffffffffff16906020019092919050505061014d565b005b3480156100c257600080fd5b506100cb610211565b005b6000809054906101000a900473ffffffffffffffffffffffffffffffffffffffff1673ffffffffffffffffffffffffffffffffffffffff163373ffffffffffffffffffffffffffffffffffffffff16148061012d575061012c33610291565b5b151561013857600080fd5b60001515600260009054906101000a90505050565b6000809054906101000a900473ffffffffffffffffffffffffffffffffffffffff1673ffffffffffffffffffffffffffffffffffffffff163373ffffffffffffffffffffffffffffffffffffffff161415156101a857600080fd5b60018190806001815401808255809150509060018203906000526020600020016000909192909190916101000a81548173ffffffffffffffffffffffffffffffffffffffff021916908373ffffffffffffffffffffffffffffffffffffffff1602179055505050565b6000809054906101000a900473ffffffffffffffffffffffffffffffffffffffff1673ffffffffffffffffffffffffffffffffffffffff163373ffffffffffffffffffffffffffffffffffffffff161480610271575061027033610291565b5b151561027c57600080fd5b60011515600260009054906101000a90505050565b600080600090505b600180549050811015610329578273ffffffffffffffffffffffffffffffffffffffff166001828154811015156102cc57fe5b9060005260206000200160009054906101000a900473ffffffffffffffffffffffffffffffffffffffff1673ffffffffffffffffffffffffffffffffffffffff16141561031c576001915061032e565b8080600101915050610299565b600091505b509190505600a165627a7a7230582037dfeed08b7cc8beab79cba39c404113619ae40aa3e036d01368ddde678d77590029",
  "source": "pragma solidity ^0.4.24;\n\ncontract KeyContract {\n\n  address owner;      //Owner's address of this key\n  address[] rights;   //Addresses that granted the right\n  bool locked = true; //\"true\" is open, \"false\" is close\n\n  constructor() public{\n    owner = msg.sender;\n  }\n\n  function open() public{\n    require(msg.sender == owner || checkRight(msg.sender));\n    locked == true;\n  }\n\n  function close() public{\n    require(msg.sender == owner || checkRight(msg.sender));\n    locked == false;\n  }\n\n  function grantRight(address _granted) public{\n    require(msg.sender == owner);\n    rights.push(_granted);\n  }\n\n  function checkRight(address _target) private returns(bool){\n    for(uint i = 0; i < rights.length; i++){\n      if(rights[i] == _target){\n        return true;\n      }\n    }\n    return false;\n  }\n}\n",
  "sourcePath": "/Users/yuta-nak/Documents/SmartLock/contracts/KeyContract.sol",
  "compiler": {
    "name": "solc",
    "version": "0.4.24+commit.e67f0147.Emscripten.clang"
  },
  "schemaVersion": "2.0.1",
  "updatedAt": "2018-07-28T12:23:20.621Z"
}