{
  "contractName": "KeyContract",
  "abi": [
    {
      "inputs": [],
      "payable": false,
      "stateMutability": "nonpayable",
      "type": "constructor"
    },
    {
      "constant": false,
      "inputs": [],
      "name": "open",
      "outputs": [
        {
          "name": "",
          "type": "bool"
        }
      ],
      "payable": false,
      "stateMutability": "nonpayable",
      "type": "function"
    },
    {
      "constant": false,
      "inputs": [],
      "name": "close",
      "outputs": [
        {
          "name": "",
          "type": "bool"
        }
      ],
      "payable": false,
      "stateMutability": "nonpayable",
      "type": "function"
    },
    {
      "constant": false,
      "inputs": [
        {
          "name": "_granted",
          "type": "address"
        }
      ],
      "name": "grantRight",
      "outputs": [],
      "payable": false,
      "stateMutability": "nonpayable",
      "type": "function"
    }
  ],
  "bytecode": "0x60806040526000600260006101000a81548160ff02191690831515021790555034801561002b57600080fd5b50336000806101000a81548173ffffffffffffffffffffffffffffffffffffffff021916908373ffffffffffffffffffffffffffffffffffffffff1602179055506104a48061007b6000396000f300608060405260043610610057576000357c0100000000000000000000000000000000000000000000000000000000900463ffffffff16806343d726d61461005c57806374b791f31461008b578063fcfff16f146100ce575b600080fd5b34801561006857600080fd5b506100716100fd565b604051808215151515815260200191505060405180910390f35b34801561009757600080fd5b506100cc600480360381019080803573ffffffffffffffffffffffffffffffffffffffff169060200190929190505050610207565b005b3480156100da57600080fd5b506100e36102cb565b604051808215151515815260200191505060405180910390f35b60008060009054906101000a900473ffffffffffffffffffffffffffffffffffffffff1673ffffffffffffffffffffffffffffffffffffffff163373ffffffffffffffffffffffffffffffffffffffff16148061015f575061015e336103d5565b5b15610184576000600260006101000a81548160ff0219169083151502179055506101f2565b6040517f08c379a000000000000000000000000000000000000000000000000000000000815260040180806020018281038252600e8152602001807f796f752063616e7420636c6f736500000000000000000000000000000000000081525060200191505060405180910390fd5b600260009054906101000a900460ff16905090565b6000809054906101000a900473ffffffffffffffffffffffffffffffffffffffff1673ffffffffffffffffffffffffffffffffffffffff163373ffffffffffffffffffffffffffffffffffffffff1614151561026257600080fd5b60018190806001815401808255809150509060018203906000526020600020016000909192909190916101000a81548173ffffffffffffffffffffffffffffffffffffffff021916908373ffffffffffffffffffffffffffffffffffffffff1602179055505050565b60008060009054906101000a900473ffffffffffffffffffffffffffffffffffffffff1673ffffffffffffffffffffffffffffffffffffffff163373ffffffffffffffffffffffffffffffffffffffff16148061032d575061032c336103d5565b5b15610352576001600260006101000a81548160ff0219169083151502179055506103c0565b6040517f08c379a000000000000000000000000000000000000000000000000000000000815260040180806020018281038252600d8152602001807f796f752063616e74206f70656e0000000000000000000000000000000000000081525060200191505060405180910390fd5b600260009054906101000a900460ff16905090565b600080600090505b60018054905081101561046d578273ffffffffffffffffffffffffffffffffffffffff1660018281548110151561041057fe5b9060005260206000200160009054906101000a900473ffffffffffffffffffffffffffffffffffffffff1673ffffffffffffffffffffffffffffffffffffffff1614156104605760019150610472565b80806001019150506103dd565b600091505b509190505600a165627a7a7230582032e17637fe7b28bc9492e358c6c5540c0f3b6f3b188201e07e332eed2c5495100029",
  "source": "pragma solidity ^0.4.24;\n\ncontract KeyContract {\n\n  address owner;      //Owner's address of this key\n  address[] rights;   //Addresses that granted the right\n  bool locked = false; //\"true\" is open, \"false\" is close\n\n  constructor() public{\n    owner = msg.sender;\n  }\n\n  function open() public returns(bool){\n    /* require(msg.sender == owner || checkRight(msg.sender)); */\n    if(msg.sender == owner || checkRight(msg.sender)){\n      locked = true;\n    }else{\n      revert(\"you cant open\");\n    }\n    return locked;\n  }\n\n  function close() public returns(bool){\n    /* require(msg.sender == owner || checkRight(msg.sender)); */\n    if(msg.sender == owner || checkRight(msg.sender)){\n      locked = false;\n    }else{\n      revert(\"you cant close\");\n    }\n    return locked;\n  }\n\n  function grantRight(address _granted) public{\n    require(msg.sender == owner);\n    rights.push(_granted);\n  }\n\n  function checkRight(address _target) private returns(bool){\n    for(uint i = 0; i < rights.length; i++){\n      if(rights[i] == _target){\n        return true;\n      }\n    }\n    return false;\n  }\n}\n",
  "sourcePath": "/Users/yuta-nak/Library/Mobile Documents/com~apple~CloudDocs/Research/CICP18_Project/SmartLock/contracts/KeyContract.sol",
  "compiler": {
    "name": "solc",
    "version": "0.4.24+commit.e67f0147.Emscripten.clang"
  },
  "schemaVersion": "2.0.1",
  "updatedAt": "2018-07-30T08:07:27.799Z"
}